:100000000C942A000C9447000C9447000C94470071
:100010000C9447000C9447000C9447000C94470044
:100020000C9447000C9447000C9447000C94470034
:100030000C9447000C9447000C9447000C94470024
:100040000C9447000C9447000C9447000C94470014
:100050000C94470011241FBECFE5D8E0DEBFCDBF12
:1000600010E0A0E6B0E0EEEEF0E002C005900D92E8
:10007000A236B107D9F710E0A2E6B0E001C01D92A8
:10008000AF36B107E1F70E9469000C9475000C943B
:100090000000549A80B5866880BD8091600089B95F
:1000A00008955F9BFECF8CB1089590E05F9BFECFDB
:1000B0008CB1E92FF0E0EE59FF4F80839F5FE92F6D
:1000C000F0E0EF59FF4F8081882381F782E690E0CE
:1000D0000895549A80B5866880BD8091600089B982
:0E00E0000E94550080E090E00895F894FFCF54
:0200EE003300DD
:00000001FF
